{
  "contractName": "ItemManager",
  "abi": [
    {
      "anonymous": false,
      "inputs": [
        {
          "indexed": false,
          "internalType": "uint256",
          "name": "_itemIndex",
          "type": "uint256"
        },
        {
          "indexed": false,
          "internalType": "uint256",
          "name": "_step",
          "type": "uint256"
        },
        {
          "indexed": false,
          "internalType": "address",
          "name": "_itemAddress",
          "type": "address"
        }
      ],
      "name": "SupplyChainStep",
      "type": "event"
    },
    {
      "inputs": [],
      "name": "_owner",
      "outputs": [
        {
          "internalType": "address payable",
          "name": "",
          "type": "address"
        }
      ],
      "stateMutability": "view",
      "type": "function",
      "constant": true
    },
    {
      "inputs": [],
      "name": "isOwner",
      "outputs": [
        {
          "internalType": "bool",
          "name": "",
          "type": "bool"
        }
      ],
      "stateMutability": "view",
      "type": "function",
      "constant": true
    },
    {
      "inputs": [
        {
          "internalType": "uint256",
          "name": "",
          "type": "uint256"
        }
      ],
      "name": "items",
      "outputs": [
        {
          "internalType": "contract Item",
          "name": "_item",
          "type": "address"
        },
        {
          "internalType": "string",
          "name": "_identifier",
          "type": "string"
        },
        {
          "internalType": "uint256",
          "name": "_itemPrice",
          "type": "uint256"
        },
        {
          "internalType": "enum ItemManager.SupplyChainState",
          "name": "_state",
          "type": "uint8"
        },
        {
          "internalType": "string",
          "name": "_category",
          "type": "string"
        }
      ],
      "stateMutability": "view",
      "type": "function",
      "constant": true
    },
    {
      "inputs": [
        {
          "internalType": "string",
          "name": "_identifier",
          "type": "string"
        },
        {
          "internalType": "uint256",
          "name": "_itemPrice",
          "type": "uint256"
        },
        {
          "internalType": "string",
          "name": "_category",
          "type": "string"
        }
      ],
      "name": "createItem",
      "outputs": [],
      "stateMutability": "nonpayable",
      "type": "function"
    },
    {
      "inputs": [
        {
          "internalType": "uint256",
          "name": "_itemIndex",
          "type": "uint256"
        }
      ],
      "name": "getItemCategory",
      "outputs": [
        {
          "internalType": "string",
          "name": "",
          "type": "string"
        }
      ],
      "stateMutability": "view",
      "type": "function",
      "constant": true
    },
    {
      "inputs": [
        {
          "internalType": "uint256",
          "name": "_itemIndex",
          "type": "uint256"
        }
      ],
      "name": "triggerPayment",
      "outputs": [],
      "stateMutability": "payable",
      "type": "function",
      "payable": true
    },
    {
      "inputs": [
        {
          "internalType": "uint256",
          "name": "_itemIndex",
          "type": "uint256"
        }
      ],
      "name": "triggerDelivery",
      "outputs": [],
      "stateMutability": "nonpayable",
      "type": "function"
    }
  ],
  "bytecode": "0x608060405234801561001057600080fd5b50336000806101000a81548173ffffffffffffffffffffffffffffffffffffffff021916908373ffffffffffffffffffffffffffffffffffffffff160217905550611c16806100606000396000f3fe6080604052600436106200007a5760003560e01c80638f32d59b11620000555780638f32d59b1462000111578063b2bdfa7b1462000141578063bfb231d21462000171578063cd31831e14620001b9576200007a565b80633457770d146200007f5780637584f75914620000ad578063800fb83f14620000f1575b600080fd5b3480156200008c57600080fd5b50620000ab6004803603810190620000a5919062000b98565b620001e7565b005b348015620000ba57600080fd5b50620000d96004803603810190620000d3919062000c32565b620003cb565b604051620000e8919062000ced565b60405180910390f35b6200010f600480360381019062000109919062000c32565b6200047b565b005b3480156200011e57600080fd5b506200012962000658565b60405162000138919062000d2e565b60405180910390f35b3480156200014e57600080fd5b5062000159620006af565b60405162000168919062000d90565b60405180910390f35b3480156200017e57600080fd5b506200019d600480360381019062000197919062000c32565b620006d3565b604051620001b095949392919062000ea9565b60405180910390f35b348015620001c657600080fd5b50620001e56004803603810190620001df919062000c32565b62000856565b005b60003083600254604051620001fc90620009d9565b6200020a9392919062000f4d565b604051809103906000f08015801562000227573d6000803e3d6000fd5b5090508060016000600254815260200190815260200160002060000160006101000a81548173ffffffffffffffffffffffffffffffffffffffff021916908373ffffffffffffffffffffffffffffffffffffffff160217905550836001600060025481526020019081526020016000206001019081620002a89190620011b6565b508260016000600254815260200190815260200160002060020181905550600060016000600254815260200190815260200160002060030160006101000a81548160ff0219169083600281111562000305576200030462000e29565b5b0217905550816001600060025481526020019081526020016000206004019081620003319190620011b6565b507fa4035636e99f06b7651a604c1019fa4e8779fe68ef27eeb74dff2de348f6199b60025460016000600254815260200190815260200160002060030160009054906101000a900460ff16600281111562000391576200039062000e29565b5b83604051620003a393929190620012c2565b60405180910390a160026000815480929190620003c0906200132e565b919050555050505050565b6060600160008381526020019081526020016000206004018054620003f09062000fb9565b80601f01602080910402602001604051908101604052809291908181526020018280546200041e9062000fb9565b80156200046f5780601f1062000443576101008083540402835291602001916200046f565b820191906000526020600020905b8154815290600101906020018083116200045157829003601f168201915b50505050509050919050565b34600160008381526020019081526020016000206002015414620004d6576040517f08c379a0000000000000000000000000000000000000000000000000000000008152600401620004cd90620013cb565b60405180910390fd5b60006002811115620004ed57620004ec62000e29565b5b6001600083815260200190815260200160002060030160009054906101000a900460ff16600281111562000526576200052562000e29565b5b1462000569576040517f08c379a000000000000000000000000000000000000000000000000000000000815260040162000560906200143d565b60405180910390fd5b600180600083815260200190815260200160002060030160006101000a81548160ff02191690836002811115620005a557620005a462000e29565b5b02179055507fa4035636e99f06b7651a604c1019fa4e8779fe68ef27eeb74dff2de348f6199b816001600084815260200190815260200160002060030160009054906101000a900460ff16600281111562000605576200060462000e29565b5b6001600085815260200190815260200160002060000160009054906101000a900473ffffffffffffffffffffffffffffffffffffffff166040516200064d93929190620012c2565b60405180910390a150565b60008060009054906101000a900473ffffffffffffffffffffffffffffffffffffffff1673ffffffffffffffffffffffffffffffffffffffff163373ffffffffffffffffffffffffffffffffffffffff1614905090565b60008054906101000a900473ffffffffffffffffffffffffffffffffffffffff1681565b60016020528060005260406000206000915090508060000160009054906101000a900473ffffffffffffffffffffffffffffffffffffffff16908060010180546200071e9062000fb9565b80601f01602080910402602001604051908101604052809291908181526020018280546200074c9062000fb9565b80156200079d5780601f1062000771576101008083540402835291602001916200079d565b820191906000526020600020905b8154815290600101906020018083116200077f57829003601f168201915b5050505050908060020154908060030160009054906101000a900460ff1690806004018054620007cd9062000fb9565b80601f0160208091040260200160405190810160405280929190818152602001828054620007fb9062000fb9565b80156200084c5780601f1062000820576101008083540402835291602001916200084c565b820191906000526020600020905b8154815290600101906020018083116200082e57829003601f168201915b5050505050905085565b600160028111156200086d576200086c62000e29565b5b6001600083815260200190815260200160002060030160009054906101000a900460ff166002811115620008a657620008a562000e29565b5b14620008e9576040517f08c379a0000000000000000000000000000000000000000000000000000000008152600401620008e0906200143d565b60405180910390fd5b60026001600083815260200190815260200160002060030160006101000a81548160ff0219169083600281111562000926576200092562000e29565b5b02179055507fa4035636e99f06b7651a604c1019fa4e8779fe68ef27eeb74dff2de348f6199b816001600084815260200190815260200160002060030160009054906101000a900460ff16600281111562000986576200098562000e29565b5b6001600085815260200190815260200160002060000160009054906101000a900473ffffffffffffffffffffffffffffffffffffffff16604051620009ce93929190620012c2565b60405180910390a150565b610781806200146083390190565b6000604051905090565b600080fd5b600080fd5b600080fd5b600080fd5b6000601f19601f8301169050919050565b7f4e487b7100000000000000000000000000000000000000000000000000000000600052604160045260246000fd5b62000a508262000a05565b810181811067ffffffffffffffff8211171562000a725762000a7162000a16565b5b80604052505050565b600062000a87620009e7565b905062000a95828262000a45565b919050565b600067ffffffffffffffff82111562000ab85762000ab762000a16565b5b62000ac38262000a05565b9050602081019050919050565b82818337600083830152505050565b600062000af662000af08462000a9a565b62000a7b565b90508281526020810184848401111562000b155762000b1462000a00565b5b62000b2284828562000ad0565b509392505050565b600082601f83011262000b425762000b41620009fb565b5b813562000b5484826020860162000adf565b91505092915050565b6000819050919050565b62000b728162000b5d565b811462000b7e57600080fd5b50565b60008135905062000b928162000b67565b92915050565b60008060006060848603121562000bb45762000bb3620009f1565b5b600084013567ffffffffffffffff81111562000bd55762000bd4620009f6565b5b62000be38682870162000b2a565b935050602062000bf68682870162000b81565b925050604084013567ffffffffffffffff81111562000c1a5762000c19620009f6565b5b62000c288682870162000b2a565b9150509250925092565b60006020828403121562000c4b5762000c4a620009f1565b5b600062000c5b8482850162000b81565b91505092915050565b600081519050919050565b600082825260208201905092915050565b60005b8381101562000ca057808201518184015260208101905062000c83565b60008484015250505050565b600062000cb98262000c64565b62000cc5818562000c6f565b935062000cd781856020860162000c80565b62000ce28162000a05565b840191505092915050565b6000602082019050818103600083015262000d09818462000cac565b905092915050565b60008115159050919050565b62000d288162000d11565b82525050565b600060208201905062000d45600083018462000d1d565b92915050565b600073ffffffffffffffffffffffffffffffffffffffff82169050919050565b600062000d788262000d4b565b9050919050565b62000d8a8162000d6b565b82525050565b600060208201905062000da7600083018462000d7f565b92915050565b6000819050919050565b600062000dd862000dd262000dcc8462000d4b565b62000dad565b62000d4b565b9050919050565b600062000dec8262000db7565b9050919050565b600062000e008262000ddf565b9050919050565b62000e128162000df3565b82525050565b62000e238162000b5d565b82525050565b7f4e487b7100000000000000000000000000000000000000000000000000000000600052602160045260246000fd5b6003811062000e6c5762000e6b62000e29565b5b50565b600081905062000e7f8262000e58565b919050565b600062000e918262000e6f565b9050919050565b62000ea38162000e84565b82525050565b600060a08201905062000ec0600083018862000e07565b818103602083015262000ed4818762000cac565b905062000ee5604083018662000e18565b62000ef4606083018562000e98565b818103608083015262000f08818462000cac565b90509695505050505050565b600062000f218262000db7565b9050919050565b600062000f358262000f14565b9050919050565b62000f478162000f28565b82525050565b600060608201905062000f64600083018662000f3c565b62000f73602083018562000e18565b62000f82604083018462000e18565b949350505050565b7f4e487b7100000000000000000000000000000000000000000000000000000000600052602260045260246000fd5b6000600282049050600182168062000fd257607f821691505b60208210810362000fe85762000fe762000f8a565b5b50919050565b60008190508160005260206000209050919050565b60006020601f8301049050919050565b600082821b905092915050565b600060088302620010527fffffffffffffffffffffffffffffffffffffffffffffffffffffffffffffffff8262001013565b6200105e868362001013565b95508019841693508086168417925050509392505050565b600062001097620010916200108b8462000b5d565b62000dad565b62000b5d565b9050919050565b6000819050919050565b620010b38362001076565b620010cb620010c2826200109e565b84845462001020565b825550505050565b600090565b620010e2620010d3565b620010ef818484620010a8565b505050565b5b8181101562001117576200110b600082620010d8565b600181019050620010f5565b5050565b601f8211156200116657620011308162000fee565b6200113b8462001003565b810160208510156200114b578190505b620011636200115a8562001003565b830182620010f4565b50505b505050565b600082821c905092915050565b60006200118b600019846008026200116b565b1980831691505092915050565b6000620011a6838362001178565b9150826002028217905092915050565b620011c18262000c64565b67ffffffffffffffff811115620011dd57620011dc62000a16565b5b620011e9825462000fb9565b620011f68282856200111b565b600060209050601f8311600181146200122e576000841562001219578287015190505b62001225858262001198565b86555062001295565b601f1984166200123e8662000fee565b60005b82811015620012685784890151825560018201915060208501945060208101905062001241565b8683101562001288578489015162001284601f89168262001178565b8355505b6001600288020188555050505b505050505050565b6000620012aa8262000d4b565b9050919050565b620012bc816200129d565b82525050565b6000606082019050620012d9600083018662000e18565b620012e8602083018562000e18565b620012f76040830184620012b1565b949350505050565b7f4e487b7100000000000000000000000000000000000000000000000000000000600052601160045260246000fd5b60006200133b8262000b5d565b91507fffffffffffffffffffffffffffffffffffffffffffffffffffffffffffffffff820362001370576200136f620012ff565b5b600182019050919050565b7f4f6e6c792066756c6c207061796d656e74732061636365707465642100000000600082015250565b6000620013b3601c8362000c6f565b9150620013c0826200137b565b602082019050919050565b60006020820190508181036000830152620013e681620013a4565b9050919050565b7f4974656d206973206675727468657220696e2074686520636861696e21000000600082015250565b600062001425601d8362000c6f565b91506200143282620013ed565b602082019050919050565b60006020820190508181036000830152620014588162001416565b905091905056fe608060405234801561001057600080fd5b5060405161078138038061078183398181016040528101906100329190610134565b816000819055508060028190555082600360006101000a81548173ffffffffffffffffffffffffffffffffffffffff021916908373ffffffffffffffffffffffffffffffffffffffff160217905550505050610187565b600080fd5b600073ffffffffffffffffffffffffffffffffffffffff82169050919050565b60006100b98261008e565b9050919050565b60006100cb826100ae565b9050919050565b6100db816100c0565b81146100e657600080fd5b50565b6000815190506100f8816100d2565b92915050565b6000819050919050565b610111816100fe565b811461011c57600080fd5b50565b60008151905061012e81610108565b92915050565b60008060006060848603121561014d5761014c610089565b5b600061015b868287016100e9565b935050602061016c8682870161011f565b925050604061017d8682870161011f565b9150509250925092565b6105eb806101966000396000f3fe6080604052600436106100385760003560e01c80632986c0e5146102885780633c8da588146102b357806389794d00146102de5761027a565b3661027a57600060015414610082576040517f08c379a000000000000000000000000000000000000000000000000000000000815260040161007990610378565b60405180910390fd5b34600054146100c6576040517f08c379a00000000000000000000000000000000000000000000000000000000081526004016100bd906103e4565b60405180910390fd5b34600160008282546100d8919061043d565b925050819055506000600360009054906101000a900473ffffffffffffffffffffffffffffffffffffffff1673ffffffffffffffffffffffffffffffffffffffff163460025460405160240161012e9190610480565b6040516020818303038152906040527f800fb83f000000000000000000000000000000000000000000000000000000007bffffffffffffffffffffffffffffffffffffffffffffffffffffffff19166020820180517bffffffffffffffffffffffffffffffffffffffffffffffffffffffff83818316178352505050506040516101b8919061050c565b60006040518083038185875af1925050503d80600081146101f5576040519150601f19603f3d011682016040523d82523d6000602084013e6101fa565b606091505b505090508061023e576040517f08c379a000000000000000000000000000000000000000000000000000000000815260040161023590610595565b60405180910390fd5b6002547f4edf5b39e08b0c159ffd68891bacf2cc9020b9d4e9e807b91f94fe88c4435388346040516102709190610480565b60405180910390a2005b34801561028657600080fd5b005b34801561029457600080fd5b5061029d610309565b6040516102aa9190610480565b60405180910390f35b3480156102bf57600080fd5b506102c861030f565b6040516102d59190610480565b60405180910390f35b3480156102ea57600080fd5b506102f3610315565b6040516103009190610480565b60405180910390f35b60025481565b60005481565b60015481565b600082825260208201905092915050565b7f4974656d206973207061696420616c7265616479210000000000000000000000600082015250565b600061036260158361031b565b915061036d8261032c565b602082019050919050565b6000602082019050818103600083015261039181610355565b9050919050565b7f4f6e6c792066756c6c207061796d656e747320616c6c6f776564000000000000600082015250565b60006103ce601a8361031b565b91506103d982610398565b602082019050919050565b600060208201905081810360008301526103fd816103c1565b9050919050565b6000819050919050565b7f4e487b7100000000000000000000000000000000000000000000000000000000600052601160045260246000fd5b600061044882610404565b915061045383610404565b925082820190508082111561046b5761046a61040e565b5b92915050565b61047a81610404565b82525050565b60006020820190506104956000830184610471565b92915050565b600081519050919050565b600081905092915050565b60005b838110156104cf5780820151818401526020810190506104b4565b60008484015250505050565b60006104e68261049b565b6104f081856104a6565b93506105008185602086016104b1565b80840191505092915050565b600061051882846104db565b915081905092915050565b7f546865207472616e73616374696f6e207761736e27742073756363657373667560008201527f6c2c2063616e63656c6c696e6700000000000000000000000000000000000000602082015250565b600061057f602d8361031b565b915061058a82610523565b604082019050919050565b600060208201905081810360008301526105ae81610572565b905091905056fea26469706673582212204600b5be72c4801a18b149d221ababacb729e07893cbf14d90c21d762d875f9e64736f6c63430008120033a2646970667358221220aca2efcb3f9ba2489838e445dd8e56bc19b3f7753180c820870bdf708b5a3b2764736f6c63430008120033",
  "immutableReferences": {},
  "source": "// SPDX-License-Identifier: UNLICENSED\r\npragma solidity ^0.8.18;\r\n\r\nimport \"./Ownable.sol\";\r\nimport \"./Item.sol\";\r\n\r\ncontract ItemManager is Ownable {\r\n    enum SupplyChainState {Created, Paid, Delivered}\r\n\r\n    struct S_Item {\r\n        Item _item;\r\n        string _identifier;\r\n        uint _itemPrice;\r\n        SupplyChainState _state;\r\n        string _category; // Thm danh mc sn phm\r\n    }\r\n\r\n    mapping(uint => S_Item) public items;\r\n    uint itemIndex;\r\n    \r\n    event SupplyChainStep(uint _itemIndex, uint _step, address _itemAddress);\r\n\r\n    function createItem(string memory _identifier, uint _itemPrice, string memory _category) public {\r\n        Item item = new Item(this, _itemPrice, itemIndex);\r\n        items[itemIndex]._item = item;\r\n        items[itemIndex]._identifier = _identifier;\r\n        items[itemIndex]._itemPrice = _itemPrice;\r\n        items[itemIndex]._state = SupplyChainState.Created;\r\n        items[itemIndex]._category = _category; // Lu danh mc sn phm\r\n        emit SupplyChainStep(itemIndex, uint(items[itemIndex]._state), address(item));\r\n        itemIndex++;\r\n    }\r\n\r\n\r\n    function getItemCategory(uint _itemIndex) public view returns (string memory) {\r\n        return items[_itemIndex]._category;\r\n    }\r\n\r\n    function triggerPayment(uint _itemIndex) public payable {\r\n        require(items[_itemIndex]._itemPrice == msg.value, \"Only full payments accepted!\");\r\n        require(items[_itemIndex]._state == SupplyChainState.Created, \"Item is further in the chain!\");\r\n        items[_itemIndex]._state = SupplyChainState.Paid;\r\n        emit SupplyChainStep(_itemIndex, uint(items[_itemIndex]._state), address(items[_itemIndex]._item));\r\n    }\r\n\r\n    function triggerDelivery(uint _itemIndex) public {\r\n        require(items[_itemIndex]._state == SupplyChainState.Paid, \"Item is further in the chain!\");\r\n        items[_itemIndex]._state = SupplyChainState.Delivered;\r\n        emit SupplyChainStep(_itemIndex, uint(items[_itemIndex]._state), address(items[_itemIndex]._item));\r\n    }\r\n}\r\n",
  "sourcePath": "D:\\LAPTRINH\\blockchain\\GK\\react-box\\react-box\\contracts\\ItemManager.sol",
  "compiler": {
    "name": "solc",
    "version": "0.8.18+commit.87f61d96.Emscripten.clang"
  },
  "schemaVersion": "3.4.16",
  "updatedAt": "2024-09-07T06:47:52.612Z",
  "networkType": "ethereum",
  "devdoc": {
    "kind": "dev",
    "methods": {},
    "version": 1
  },
  "userdoc": {
    "kind": "user",
    "methods": {},
    "version": 1
  }
}